S010000063616C74657374312E73726563F3
S11300000C94B1000C94CE000C94CE000C94CE0051
S11300100C94CE000C94CE000C94CE000C94CE0024
S11300200C94CE000C94CE000C94CE000C94CE0014
S11300300C94CE000C94CE000C94CE000C94CE0004
S11300400C94CE000C94CE000C94CE000C94CE00F4
S11300500C94CE000C94CE000C94CE000C94CE00E4
S11300600C94CE000C94CE0000407A10F35A00A0F9
S1130070724E18090010A5D4E80000E8764817006D
S113008000E40B54020000CA9A3B000000E1F505AD
S1130090000080969800000040420F000000A086F7
S11300A001000000102700000000E8030000000029
S11300B06400000000000A000000000001000000CD
S11300C000002C76D888DC674F0823DFC1DFAE59E7
S11300D0E1B1B796E5E3E453C63AE651997696E87A
S11300E0E6C28426EB898C9B62ED407C6FFCEFBCFE
S11300F09C9F40F2BAA56FA5F490055A2AF75C9329
S11301006B6CF9676DC11BFCE0E40D47FEF520E65E
S1130110B500D0ED902E0300943577050080841E41
S1130120080000204E0A000000C80C333333330F9C
S1130130986E12831141EF8D2114893BE65516CF39
S1130140FEE6DB18D1844B381BF77C1D901DA4BB45
S1130150E424203284725E228100C9F124ECA1E5FA
S11301603D2711241FBECFEFD8E0DEBFCDBF11E085
S1130170A0E0B1E0EAEAF1E102C005900D92A633F5
S1130180B107D9F721E0A6E3B1E001C01D92A6347E
S1130190B207E1F70E948B040C94D3080C9400007E
S11301A098B1907F98B984FF03C098B1916098B9D1
S11301B085FF03C098B1926098B986FF03C098B1D7
S11301C0946098B988231CF498B1986098B995B153
S11301D09B7F95B995B19D7F95B995B1916095B97E
S11301E095E09A95F1F7000095B19E7F95B9E7ECFB
S11301F0F0E03197F1F700C0000098B1907F98B912
S113020080FF03C098B1916098B981FF03C098B191
S1130210926098B982FF03C098B1946098B983FF43
S113022003C088B1886088B985B1816085B9F5E07B
S1130230FA95F1F7000085B18E7F85B98FE39FE1D0
S11302400197F1F700C00000089598B1907F98B924
S113025084FF03C098B1916098B985FF03C098B139
S1130260926098B986FF03C098B1946098B98823C6
S11302701CF498B1986098B995B1946095B995B10A
S11302809D7F95B995B1916095B995E09A95F1F7EF
S1130290000095B19E7F95B9E7ECF0E03197F1F756
S11302A000C0000098B1907F98B980FF03C098B156
S11302B0916098B981FF03C098B1926098B982FFA8
S11302C003C098B1946098B983FF03C088B1886073
S11302D088B985B1816085B9F5E0FA95F1F7000038
S11302E085B18E7F85B98FE39FE10197F1F700C057
S11302F0000008952FEF89EF90E021508040904056
S1130300E1F700C0000082E00E94D00088E20E9471
S1130310D0008CE00E94D00086E00E94D00081E0F2
S11303200E94D0008FE39FE10197F1F700C0000025
S11303300895CF93DF93EC018881882321F02196DF
S11303400E942501F9CFDF91CF91089581E00E94A9
S1130350D0008FE39FE10197F1F700C000000895FA
S11303608BB1806F8BB98BB18F7E8BB948990BC0E1
S11303702FEF80E792E0215080409040E1F700C0E9
S1130380000087E3089549990BC02FEF80E792E0BE
S1130390215080409040E1F700C0000084E30895BC
S11303A04A990BC02FEF80E792E0215080409040A3
S11303B0E1F700C0000081E308954B990BC02FEFD3
S11303C080E792E0215080409040E1F700C00000B7
S11303D08FE408958BB180618BB98BB18F7D8BB91C
S11303E048990BC02FEF80E792E021508040904065
S11303F0E1F700C0000088E3089549990BC02FEF8E
S113040080E792E0215080409040E1F700C0000076
S113041085E308954A990BC02FEF80E792E02150BD
S113042080409040E1F700C0000082E308954B99BA
S11304300BC02FEF80E792E0215080409040E1F71D
S113044000C0000080E308958BB180628BB98BB14A
S11304508F7B8BB948990BC02FEF80E792E0215036
S113046080409040E1F700C0000089E30895499975
S11304700BC02FEF80E792E0215080409040E1F7DD
S113048000C0000086E308954A990BC02FEF80E76F
S113049092E0215080409040E1F700C0000083E3E7
S11304A008954B990BC02FEF80E792E021508040D4
S11304B09040E1F700C000008DE308958BB18064A3
S11304C08BB98BB18F778BB948990BC02FEF80E72D
S11304D092E0215080409040E1F700C000008FE29C
S11304E0089549990BC02FEF80E792E02150804096
S11304F09040E1F700C0000088E708954A990BC0D6
S11305002FEF80E792E0215080409040E1F700C057
S113051000008DE208954B990BC02FEF80E792E025
S1130520215080409040E1F700C000008BE2089524
S11305308BB180688BB980E008954F925F926F927F
S11305407F928F929F92AF92BF92CF92DF92EF925F
S1130550FF920F931F93CF93DF93CDB7DEB72C9702
S11305600FB6F894DEBF0FBECDBF8091360188234D
S1130570E1F00E94A60186E391E00E9499010E94A5
S1130580B0018F3439F08FE39CE90197F1F700C093
S11305900000F5CF0E94B001882339F08FE39CE975
S11305A00197F1F700C00000F5CF0E94A6010E9458
S11305B0B001182F811107C08FE39CE90197F1F76F
S11305C000C00000F4CFE12CF12CC12CD12C1B3243
S11305D0B9F11D32A9F1183799F11F3289F11F348D
S11305E079F195E0E916F1045CF580ED810F8A302C
S11305F080F4812F0E942501E1E0F0E0EC0FFD1F63
S1130600EC0DFD1D10832FEFE21AF20AC6010196CC
S11306106C010E94B001882339F08FE39CE90197B3
S1130620F1F700C00000F5CF0E94B001182F81112E
S1130630CECF8FE39CE90197F1F700C00000F4CF1F
S1130640E1E0F0E0EC0FFD1FEC0DFD1D10821F3406
S113065091F4109236010E94A60180E091E00E947C
S113066099019FEF23ED80E3915020408040E1F712
S113067000C0000039C19FE0E916F1043CF4812F69
S11306800E9425012FEFE21AF20A10C00E94A6016F
S113069081E191E00E9499018FEF97EA21E6815070
S11306A090402040E1F700C000001EC10E94B0014C
S11306B0082F811107C08FE39CE90197F1F700C06F
S11306C00000F4CFC12CD12C0D3389F10F3479F112
S11306D09AE0E916F1045CF580ED800F8A3080F42D
S11306E0802F0E942501E7E0F0E0EC0FFD1FEC0DE8
S11306F0FD1D00832FEFE21AF20AC60101966C0178
S11307000E94B001882339F08FE39CE90197F1F747
S113071000C00000F5CF0E94B001082F8111D4CF92
S11307208FE39CE90197F1F700C00000F4CFE7E004
S1130730F0E0EC0FFD1FEC0DFD1D10820F3491F461
S1130740109236010E94A60180E091E00E94990176
S11307509FEF23ED80E3915020408040E1F700C0FB
S11307600000C2C00D3309F0A2C09FE0E916F104F5
S11307700CF09DC0CE0101960E94ED054B015C0179
S1130780CE0107960E94ED052B013C018DE30E94EA
S113079025012FEFE21AF20A1D32A9F018F41B32D8
S11307A031F050C01F3239F11837C9F04BC0C501C0
S11307B0B401640D751D861D971D2AE046E351E0C2
S11307C00E94140648C0C501B4016419750986095C
S11307D097092AE046E351E00E9414063CC0A501B3
S11307E09401C301B2010E94A3052AE046E351E04B
S11307F00E94140630C04114510461047104B9F01C
S1130800C501B4010E9417054B015C01C301B2018B
S11308100E9417059B01AC01C501B4010E94A30409
S113082006E311E021E045E00E94CD0514C0E6E3B3
S1130830F1E085E492E79183808382E790E09383FB
S1130840828309C086E0E0E2F1E0A6E3B1E0019032
S11308500D928A95E1F7E6E3F1E001900020E9F7D3
S11308603197CF01865391408E0D9F1D419728F4F7
S113087086E391E00E94990137C080E80E94D0008D
S113088086E291E00E94990180E1E6E2F1E0A6E3CC
S1130890B1E001900D928A95E1F78FEF97EA21E696
S11308A0815090402040E1F700C000001DC08FE05F
S11308B0E816F104CCF080E80E94D00081E191E0D8
S11308C00E9499018FE0E1E1F1E0A6E3B1E001903B
S11308D00D928A95E1F79FEF27EA81E69150204037
S11308E08040E1F700C000002C960FB6F894DEBFFC
S11308F00FBECDBFDF91CF911F910F91FF90EF906D
S1130900DF90CF90BF90AF909F908F907F906F902B
S11309105F904F90089584B1876084B987B18F60E8
S113092087B98AB1807F8AB98AB1806F8AB98BB15D
S11309308F608BB90E947A0180E091E00E94990156
S11309400E949D02FDCF0E94B7040C9469050E9489
S1130950620558F00E945B0540F029F45F3F29F0DE
S11309600C94520551110C949D050C9458050E9449
S11309707A0568F39923B1F3552391F3951B550B2D
S1130980BB27AA2762177307840738F09F5F5F4F5E
S1130990220F331F441FAA1FA9F335D00E2E3AF09D
S11309A0E0E832D091505040E695001CCAF72BD0B5
S11309B0FE2F29D0660F771F881FBB1F2617370706
S11309C04807AB07B0E809F0BB0B802DBF01FF2738
S11309D093585F4F3AF09E3F510578F00C945205BE
S11309E00C949D055F3FE4F3983ED4F38695779588
S11309F06795B795F7959F5FC9F7880F911D9695F1
S1130A00879597F90895E1E0660F771F881FBB1F4C
S1130A10621773078407BA0720F0621B730B840BF9
S1130A20BA0BEE1F88F7E0950895E89409C097FB88
S1130A303EF490958095709561957F4F8F4F9F4FB1
S1130A409923A9F0F92F96E9BB279395F6958795F5
S1130A5077956795B795F111F8CFFAF4BB0F11F4B8
S1130A6060FF1BC06F5F7F4F8F4F9F4F16C088235F
S1130A7011F096E911C0772321F09EE8872F762F95
S1130A8005C0662371F096E8862F70E060E02AF0D6
S1130A909A95660F771F881FDAF7880F96958795C2
S1130AA097F9089597F99F6780E870E060E00895EA
S1130AB09FEF80EC089500240A9416161706180672
S1130AC00906089500240A9412161306140605064E
S1130AD00895092E0394000C11F4882352F0BB0FDF
S1130AE040F4BF2B11F460FF04C06F5F7F4F8F4F42
S1130AF09F4F089557FD9058440F551F59F05F3F7D
S1130B0071F04795880F97FB991F61F09F3F79F02B
S1130B1087950895121613061406551FF2CF4695AD
S1130B20F1DF08C0161617061806991FF1CF86952F
S1130B307105610508940895E894BB276627772713
S1130B40CB0197F90895DB018F939F930E94B3051E
S1130B50BF91AF91A29F800D911DA39F900DB29F55
S1130B60900D112408950E94BE05A59F900DB49F79
S1130B70900DA49F800D911D11240895A29FB00192
S1130B80B39FC001A39F700D811D1124911DB29FBD
S1130B90700D811D1124911D0895EF920F931F93E1
S1130BA0CF93DF93E80147FD02C034E001C034E194
S1130BB0042E000C550B57FF03C051954195510964
S1130BC0E32E022F242FAE010E945A06CE01DF919C
S1130BD0CF911F910F91EF9008951F93FC019927D6
S1130BE08827BC01E89411911032E9F3193010F010
S1130BF01E30C8F31B3251F01D3249F4689406C00C
S1130C000E942306610F711D811D911D11911053C6
S1130C101A30B0F33EF490958095709561957F4FAE
S1130C208F4F9F4F1F910895BB272A3051F499236A
S1130C3042F4BDE290958095709561957F4F8F4FFA
S1130C409F4F0C943906592F482F372F262F660FA4
S1130C50771F881F991F660F771F881F991F620FC0
S1130C60731F841F951F660F771F881F991F089590
S1130C70BB27FA01A62F6217710581059105330B75
S1130C8030FB66F0AA27660F771F881F991FAA1FDB
S1130C90A21710F0A21B63953850A9F7A05DAA33E0
S1130CA008F0A95DA19336F7B111B1931082CA017E
S1130CB00C948C08A9E0B0E0E0E6F6E00C94A208FD
S1130CC06A01122FB02E2BE3201720F0FF24F39497
S1130CD0F00E02C02CE3F22E0F2D27E0AE014F5F81
S1130CE05F4F0E94B407BC014981842F8970813011
S1130CF031F0E1FC06C0E0FE06C090E205C09DE2D2
S1130D0003C09BE201C090E05E2D507143FF3CC0E4
S1130D10911102C083E001C084E0811718F4212FEF
S1130D20281B01C020E051110BC0F601822F30E2D4
S1130D30882319F031938150FBCFC20ED11C20E0DF
S1130D40992329F0D6019C93F60131966F01C601CF
S1130D500396E2FE0AC03EE4D6013C9341E41196B8
S1130D604C93119712963C9306C03EE6F6013083ED
S1130D7041E641833283FC01322F40E2332309F4FC
S1130D8042C041933150FACF42FF44C0911102C096
S1130D9083E001C084E0811718F4212F281B01C0CF
S1130DA020E051110BC0F601822F30E2882319F0A4
S1130DB031938150FBCFC20ED11C20E0992329F03E
S1130DC0D6019C93F60131966F01C6010396E2FEAB
S1130DD00BC039E4D6013C933EE411963C93119741
S1130DE036E412963C9307C039E6F60130833EE6BA
S1130DF0318336E63283FC01322F40E2332319F08B
S1130E0041933150FBCFFC01E20FF11D10828EEFB4
S1130E109FEFA6C021E030E0911102C020E030E055
S1130E20161617061CF4FB01319602C0E1E0F0E04F
S1130E302E0F3F1FBB2021F0EB2DF0E0319602C0B6
S1130E40E0E0F0E02E0F3F1FE12FF0E02E173F0708
S1130E501CF4121B212F01C020E08E2D887159F43F
S1130E60F601822F30E2882319F031938150FBCFB1
S1130E70C20ED11C20E0992329F0D6019C93F601DF
S1130E8031966F0151110BC0F601822F90E3882334
S1130E9019F091938150FBCFC20ED11C20E00F2D8D
S1130EA0060F9A81342F307144FF03C0913309F443
S1130EB00150101624F4093018F008E001C001E0D4
S1130EC0AB0177FF02C040E050E0FB01E41BF50BEF
S1130ED0A1E0B0E0AC0FBD1FEA0FFB1F8EE2A82E0D
S1130EE04B01801A91080B2D10E011950195110901
S1130EF04F3FBFEF5B0721F4D601AC9211966D0111
S1130F00641775072CF08416950614F4818101C0CA
S1130F1080E3415051093196D60111967D01401765
S1130F20510724F0D6018C936701E2CF641775074B
S1130F3039F4963320F4953319F4311101C081E367
S1130F40F6018083F701822F90E2882319F09193B0
S1130F508150FBCFF701E20FF11D108280E090E099
S1130F602996ECE00C94BE08283008F027E03327DB
S1130F70DA01990F311D87FD9160009661057105B5
S1130F8039F432602E5F3D9330E32A95E1F70895FA
S1130F909F3F30F080387105610509F03C5F3C5F8C
S1130FA03D93913008F08068911DDF93CF931F9398
S1130FB00F93FF92EF92192F987F9695E92F9695AC
S1130FC09695E90FFF27EE53FF4F99273327EE2419
S1130FD0FF24A701E70105900894079428F4360F2D
S1130FE0E71EF81E491F511D660F771F881F991FA2
S1130FF00694A1F70590079428F4E70EF81E491FFC
S1131000561FC11D770F881F991F661F0694A1F7ED
S11310100590079428F4F80E491F561FC71FD11DC9
S1131020880F991F661F771F0694A1F705900794F0
S113103020F4490F561FC71FD81F990F661F771F2B
S1131040881F0694A9F784911095177041F0D695DE
S1131050C79557954795F794E7941A95C1F7E8E62D
S1131060F0E06894159015913591659195910590EE
S11310707FE27395E118F10A430B560BC90BD009B3
S1131080C0F7E10CF11E431F561FC91FD01D7EF48B
S1131090703311F48A95E6CFE894015030F0080FCC
S11310A00AF40027021708F4202F2395022F7A331D
S11310B028F079E37D932A95E9F710C07D932A956A
S11310C089F6069497956795379517951794E118BF
S11310D0F10A430B560BC90BD00998F023957E9166
S11310E073957A3308F070E37C932013B8F77E91FC
S11310F070617D9330F0839571E37D9370E32A955D
S1131100E1F71124EF90FF900F911F91CF91DF91A0
S1131110992787FD90950895DC01FC01672F719153
S11311207723E1F7329704C07C916D9370836291C9
S1131130AE17BF07C8F308952F923F924F925F9264
S11311406F927F928F929F92AF92BF92CF92DF92D3
S1131150EF92FF920F931F93CF93DF93CDB7DEB738
S1131160CA1BDB0B0FB6F894DEBF0FBECDBF0994CC
S11311702A88398848885F846E847D848C849B8423
S1131180AA84B984C884DF80EE80FD800C811B8131
S1131190AA81B981CE0FD11D0FB6F894DEBF0FBE60
S10D11A0CDBFED010895F894FFCFD0
S11311AA43616C63756C61746F7220526561647912
S11311BA00496E70757420546F6F204C6F6E67000F
S11311CA4F7045727200526573756C7420546F6F58
S10911DA204C6F6E67005B
S9030000FC
