:100000000C943A000C94B6000C9457000C945700D2
:100010000C9457000C9457000C9457000C94570004
:100020000C9457000C9457000C9457000C94110832
:100030000C9457000C9457000C9457000C945700E4
:100040000C9457000C9457000C9457000C945700D4
:100050000C9457000C9457000C9457000C945700C4
:100060000C9457000C9457006364696E6F7073753D
:1000700078585B0011241FBECFEFD8E0DEBFCDBFA4
:1000800012E0A0E0B1E0EEE9F0E202C005900D92CE
:10009000A83BB107D9F722E0A8EBB2E001C01D925E
:1000A000AA3DB207E1F70E9449080C944D100C9448
:1000B0000000E9E6F0E08081826080838DB381609A
:1000C0008DBB789408950F931F93CF93DF9300D047
:1000D00000D000D0CDB7DEB7182F062F0E948F09B1
:1000E0000E940C0280E091E00E94AF0161E080E09C
:1000F0000E94ED011F920F931F921F9386E291E0E1
:100100009F938F938E010F5F1F4F1F930F930E943A
:100110002F0AC8010E94AF012FE38DE093E0215028
:1001200080409040E1F700C000000FB6F894DEBFB9
:100130000FBECDBF26960FB6F894DEBF0FBECDBF63
:10014000DF91CF911F910F91089584B1806184B99F
:10015000089585B1806185B981E08093B8020895E2
:1001600085B18F7E85B91092B80208951F920F92C3
:100170000FB60F9211242F933F934F935F936F937A
:100180007F938F939F93AF93BF93EF93FF930E94BF
:10019000A900FF91EF91BF91AF919F918F917F91B6
:1001A0006F915F914F913F912F910F900FBE0F90E4
:1001B0001F9018951092B90088E48093B80084E0ED
:1001C0008093BC00089584EA8093BC008091BC00B9
:1001D0008823E4F7089584E98093BC000895809310
:1001E000BB0084E88093BC008091BC008823E4F7C6
:1001F000089584EC8093BC008091BC008823E4F7D0
:100200008091BB00089584E88093BC008091BC007D
:100210008823E4F78091BB0008958AB1806F8AB982
:100220008BB1806F8BB984B1807F84B985B18F60C9
:1002300085B9089530E044C08BB1E32FF0E0BF01F1
:100240006C5F7F4F41E050E002C0440F551F6A953C
:10025000E2F7A42F942F909589238BB981EE94E037
:100260000197F1F700C0000020E024C083B1622FA5
:1002700070E090E0022E02C0959587950A94E2F70F
:1002800080FD17C083B190E0062E02C0959587953A
:100290000A94E2F780FFF6CF8BB1A82BABB9EE0F33
:1002A000FF1FEE0FFF1FE55FFE4FE60FF71F808178
:1002B00008952F5F2430D0F28BB1482B4BB93F5FAC
:1002C000343008F4B9CF80E008951F93CF93DF93C3
:1002D000182F107F90E1899FE00111240E94E30014
:1002E00080E40E94EF0080E00E94EF00812F846094
:1002F0000E94EF00812F0E94EF008C2F84600E94EB
:10030000EF008C2F0E94EF000E94EB0083EF91E042
:100310000197F1F700C00000DF91CF911F91089580
:1003200083ED90E30197F1F700C0000083E30E94A2
:10033000650182E30E94650188E20E9465018CE00C
:100340000E94650186E00E94650181E00E946501CE
:1003500083EF91E00197F1F700C0000008950F933B
:100360001F93CF93DF9300D000D0CDB7DEB78C01C1
:100370000E94E30080E40E94EF0080E40E94EF000E
:100380001CC02A81207F29838A81E0E18E9FC001E1
:1003900011249C838B83822F85600E94EF008981CA
:1003A00081600E94EF008B8185600E94EF008B814D
:1003B00081600E94EF000F5F1F4FF801F081FA8308
:1003C000F111DFCF0E94EB000F900F900F900F9074
:1003D000DF91CF911F910F910895CF93DF9300D0BC
:1003E00000D0CDB7DEB7198290E49A8394E19B8365
:1003F00094E59C83E1E0F0E0EC0FFD1FE60FF11DBA
:100400009081890F80680E9465010F900F900F9076
:100410000F90DF91CF91089581E00E94650183EFF5
:1004200091E00197F1F700C000000895EF92FF926C
:100430000F931F93CF93DF93CDB7DEB7A9970FB676
:10044000F894DEBF0FBECDBF0E94F2085C836D83BF
:100450007E838F831F922F931F923F931F924F9300
:100460008BE191E09F938F937E0188E0E80EF11C71
:10047000FF92EF920E942F0A9D818C812F812F93F2
:100480002E812F931F929F931F928F9380E391E071
:100490009F938F938E01075E1F4F1F930F930E94B0
:1004A0002F0A0E940C02C7010E94AF0161E080E0A8
:1004B0000E94ED01C8010E94AF010FB6F894DEBFA3
:1004C0000FBECDBFA9960FB6F894DEBF0FBECDBF4D
:1004D000DF91CF911F910F91FF90EF9008950F93AF
:1004E0001F93CF93DF93CDB7DEB760970FB6F89425
:1004F000DEBF0FBECDBF0E940C0285E491E00E94DA
:10050000AF0161E080E00E94ED018091BF021F9287
:100510008F938091C0021F928F9386E291E09F9308
:100520008F938E010F5F1F4F1F930F930E942F0A0F
:10053000C8010E94AF0161E08091C1020E94ED01FB
:100540000FB6F894DEBF0FBECDBF60960FB6F8941D
:10055000DEBF0FBECDBFDF91CF911F910F910895E8
:100560000F931F93CF93DF93CDB7DEB761970FB68D
:10057000F894DEBF0FBECDBF0E940C028091BD0279
:10058000833070F58AE0E5E5F1E08E010F5F1F4FE3
:10059000D80101900D928A95E1F7C8010E94AF0140
:1005A000E3EDF2E02081918182811F922F931F92CF
:1005B0009F931F928F9381E291E09F938F931F935C
:1005C0000F930E942F0A61E080E00E94ED01C801B4
:1005D0000E94AF010FB6F894DEBF0FBECDBF2EC094
:1005E0008AE0EFE5F1E08E010F5F1F4FD801019027
:1005F0000D928A95E1F7C8010E94AF01E3EDF2E0A8
:100600009481838126812F9325812F931F929F931D
:100610001F928F9386E391E09F938F931F930F9385
:100620000E942F0A61E080E00E94ED01C8010E9453
:10063000AF010FB6F894DEBF0FBECDBF61960FB607
:10064000F894DEBF0FBECDBFDF91CF911F910F9108
:100650000895CF93DF93CDB7DEB727970FB6F89401
:10066000DEBF0FBECDBF0E94F20829838091C20277
:10067000833009F074C0922F917020FD11C08091D9
:10068000BE0281110DC061E08091C1020E94ED01A6
:1006900084EB91E00E94AF0181E08093BE029AC09A
:1006A000992309F497C08091BE02813009F092C06D
:1006B00061E08091C1020E94ED018091C10281112F
:1006C0000EC08091C0029DEC899F812D11248695DA
:1006D0008695869590E0C0960E94AF013DC081301E
:1006E000A9F49091C0028DEC989F812D11248695DC
:1006F00086958695880F282F220F220F820F981B30
:10070000892F90E0C0960E94AF0126C0833071F41B
:100710008091BF029DEC899F812D1124869586953D
:10072000869590E0C0960E94AF0116C08430A1F477
:100730009091BF028DEC989F812D1124869586950E
:100740008695880F282F220F220F820F981B892F42
:1007500090E0C0960E94AF011092BE023BC0843070
:10076000C9F58981982F917080FD2AC08091BE02C1
:10077000811126C08091BD02882361F0813061F033
:10078000823061F0833061F0843061F0853061F057
:1007900080E00BC080E009C083E007C086E005C0B0
:1007A00080E003C083E001C086E061E00E94ED01CB
:1007B00083EB91E00E94AF0181E08093BE020AC00A
:1007C000992341F08091BE02813021F40E94B00251
:1007D0001092BE0227960FB6F894DEBF0FBECDBFB3
:1007E000DF91CF91089590ED980F9A3008F06EC088
:1007F0008091C10281111BC0933008F064C0209128
:10080000C0028DEC289F812D1124869586958695B2
:10081000880F382F330F330F830F281B990F892F21
:10082000880F880F980F920F9093C0024CC08130B0
:10083000D9F48091C0022CEE280F2A3010F49430A5
:1008400018F0843108F03FC02DEC829F812D1124D7
:10085000869586958695880F282F220F220F820F66
:10086000980F9093C0022FC08330D1F4963058F582
:100870002091BF028DEC289F812D112486958695AD
:100880008695880F382F330F330F830F281B990F4E
:10089000892F880F880F980F920F9093BF0213C073
:1008A000843089F48091BF022DEC829F812D112428
:1008B000869586958695880F282F220F220F820F06
:1008C000980F9093BF020E946F0208958D32B1F489
:1008D0008091C102882309F444C0833021F481E06F
:1008E0008093C10203C081508093C10261E0809176
:1008F000C1020E94ED011092BE0208958B32A9F44C
:100900008091C102843068F5813021F483E08093C6
:10091000C10203C08F5F8093C10261E08091C10278
:100920000E94ED011092BE0208958D33D1F48091A2
:10093000B802882319F00E94B00008956091BF02A8
:100940008091C0020E9463002FE78AE196E0215067
:1009500080409040E1F700C000001092C2020E9467
:10096000160208950F931F93CF93DF938D33C1F435
:1009700083ED92E00E94C1090E940C0289E691E099
:100980000E94AF012FE78AE196E02150804090401D
:10099000E1F700C000001092C2020E9416028DC151
:1009A0008B3269F48091BD0290E0019666E070E0C0
:1009B0000E94F8098093BD020E94B0027EC18D3270
:1009C00071F48091BD02811104C085E08093BD0265
:1009D00003C081508093BD020E94B0026EC180535B
:1009E0008A3008F06AC19091BD02923009F47EC04D
:1009F00030F4992369F0913009F441C05CC194301E
:100A000009F4E2C008F4A9C0953009F414C153C137
:100A10008330E8F4880F982F990F990F890F9DEC78
:100A2000899F912D1124969596959695990F292F2A
:100A3000220F220F920F282F291B820F8093D5029D
:100A4000883108F438C187E18093D50234C1E3EDE1
:100A5000F2E092812DEC929F912D1124969596951E
:100A60009695990F292F220F220F920F890F8283BB
:100A7000883108F420C187E18093D5021CC18630FB
:100A8000E8F4880F982F990F990F890F9DEC899F93
:100A9000912D1124969596959695990F292F220FB1
:100AA000220F920F282F291B820F8093D4028C33A0
:100AB00008F401C18BE38093D402FDC0E3EDF2E0C2
:100AC00091812DEC929F912D112496959695969556
:100AD000990F292F220F220F920F890F81838C33B8
:100AE00008F4E9C08BE38093D402E5C08630E8F4D3
:100AF000880F982F990F990F890F9DEC899F912D41
:100B00001124969596959695990F292F220F220FCD
:100B1000920F282F291B820F8093D3028C3308F465
:100B2000CAC08BE38093D302C6C0E3EDF2E09081AC
:100B30002DEC929F912D1124969596959695990F4F
:100B4000292F220F220F920F890F80838C3308F4F4
:100B5000B2C08BE38093D302AEC08430E8F4880F38
:100B6000982F990F990F890F9DEC899F912D112432
:100B7000969596959695990F292F220F220F920FF1
:100B8000282F291B820F8093D602803208F493C04D
:100B90008FE18093D6028FC0E3EDF2E093812DECDC
:100BA000929F912D1124969596959695990F292FA0
:100BB000220F220F920F890F8383803208F47BC0AB
:100BC0008FE18093D60277C08230E8F4880F982FA7
:100BD000990F990F890F9DEC899F912D112496955E
:100BE00096959695990F292F220F220F920F282F55
:100BF000291B820F8093D7028D3008F45CC08CE0F3
:100C00008093D70258C0E3EDF2E094812DEC929FDF
:100C1000912D1124969596959695990F292F220F2F
:100C2000220F920F890F84838D3008F444C08CE02A
:100C30008093D70240C0C8EED3E08C9F80018D9F87
:100C4000100D1124E3EDF2E0458156819A013695AD
:100C500027953695279536952795A5ECB0E20E9405
:100C60000C0A929582958F7089279F7089278C9F97
:100C700090018D9F300D9C9F300D1124CA01821B65
:100C8000930B800F911F96838583803D974030F4AE
:100C900080ED97E09093D9028093D8028091D8029A
:100CA0009091D9028433984030F083E398E0909398
:100CB000D9028093D8020E94B002DF91CF911F9198
:100CC0000F9108951092BC021092C3021092BB02C1
:100CD0000E940C0288E791E00E94AF0161E080E091
:100CE0000E94ED0108950F931F93CF93DF9300D0DF
:100CF00000D01F92CDB7DEB71A8219821C821B82E8
:100D00001D829E012D5F3F4F3F932F932E5F3F4FDC
:100D10003F932F93245031093F932F9328E831E0DC
:100D20003F932F939F938F930E94510A0FB6F8948D
:100D3000DEBF0FBECDBF8D818B3249F018F48A32F1
:100D4000A1F034C08D3251F08F32D9F02FC009811B
:100D50001A818B819C81080F191F2AC009811A8171
:100D60008B819C81081B190B23C029813A818B81BF
:100D70009C81289F8001299F100D389F100D112400
:100D800017C00B811C810115110539F089819A81E9
:100D9000B8010E94F8098B010BC061E080E00E945D
:100DA000ED018FE891E00E94AF0102C000E010E089
:100DB000C8010F900F900F900F900F90DF91CF917F
:100DC0001F910F9108950F931F93CF93DF93CDB78A
:100DD000DEB760970FB6F894DEBF0FBECDBF833489
:100DE00019F40E94620661C08D3389F59091BB02AF
:100DF00091112DC083EC92E00E9473069F938F9314
:100E000083EC92E09F938F938FE991E09F938F9370
:100E10008E010F5F1F4F1F930F930E942F0A61E0F7
:100E200080E00E94ED0185EA91E00E94AF0161E05F
:100E300080E00E94ED01C8010E94AF0181E0809333
:100E4000BB020FB6F894DEBF0FBECDBF2EC08D33F0
:100E500039F49091BB02992319F00E94620625C0D3
:100E6000E091BC02EF3008F59091BB0291111DC0DA
:100E700091E09E0F9093BC02F0E0ED53FD4F808314
:100E8000E92FF0E0ED53FD4F108261E080E00E9419
:100E9000ED0185EA91E00E94AF0161E080E00E94EF
:100EA000ED0183EC92E00E94AF0160960FB6F894DA
:100EB000DEBF0FBECDBFDF91CF911F910F9108957F
:100EC0000E941A01833451F58091C202811121C020
:100ED00081E08093C2020E940C0286EB91E00E94A6
:100EE000AF012FE78AE196E0215080409040E1F782
:100EF00000C000000E940C0283EC91E00E94AF0150
:100F000061E080E00E94ED0183ED91E00E94AF017D
:100F100008951092C2020E94160208959091C20292
:100F20009130A1F5813331F482E08093C2020E94B6
:100F300062060895823371F483E08093C2021092B6
:100F4000C0021092BF021092C1021092BE020E9413
:100F50006F020895833369F584E08093C2020E9492
:100F6000F2082093D3023093D4024093D5025093D9
:100F7000D6026093D7027093D8028093D902109260
:100F8000BD021092BE020E94B0020895923029F470
:100F9000882319F00E94E3060895933029F48823EA
:100FA00019F00E94F3030895943019F481110E94FE
:100FB000B20408951F93CF93DF93CDB7DEB7279781
:100FC0000FB6F894DEBF0FBECDBF0E94F20880912D
:100FD000C202811109C0122F8091B902281721F095
:100FE0000E9416021093B90227960FB6F894DEBF3E
:100FF0000FBECDBFDF91CF911F9108951092800059
:10100000E1E8F0E088E0808382E19AE7909389004C
:101010008093880082E080936F0080818460808369
:1010200008951F920F920FB60F9211248F9381E0B3
:101030008093BA028F910F900FBE0F901F9018955A
:101040001092C50087E68093C40088E08093C100B9
:1010500086E08093C20008959091C00095FFFCCF78
:101060008093C6000895CF93DF93EC0103C02196CF
:101070000E942C0888818111FACFDF91CF910895C9
:101080000E9433088DE00E942C088AE00E942C0800
:1010900008950E94DA000E9490010E94C6080E94F2
:1010A0000D010E9459000E94A5000E9416020E9494
:1010B000200887B1846087B987B1877F87B984B1F9
:1010C000806284B985B18F7D85B980E480937C008E
:1010D00087E880937A000E94FE07789483EE91E07F
:1010E0000E94400880E192E00E9440088CE392E078
:1010F0000E94400883E592E00E9440088AE692E060
:101100000E94400885EB91E00E94400881E892E04F
:101110000E94400885EB91E00E94400887EA91E632
:101120000197F1F700C000000E9450098823C1F028
:101130000E94A90081E08093B8020E940C0280EA1C
:1011400092E00E94AF0161E080E00E94ED0187EA39
:1011500092E00E94AF010E946A0983E08093C2027C
:101160000E9460070E94DA078091C202833019F45E
:101170000E94290304C0843011F40E94290383EDE6
:1011800090E30197F1F700C00000CECF0E94E3008A
:1011900082EA0E94EF0080E00E94EF0080E00E945F
:1011A000EF000E94EB000895982F92959F70990F81
:1011B000292F220F220F920F8F70890F08959DEC17
:1011C000899F912D112496959695969520E1929F51
:1011D000A0011124990F292F220F220F920F891B92
:1011E000842B0895CF93DF93CDB7DEB72E970FB63C
:1011F000F894DEBF0FBECDBF0E94E30082EA0E94DA
:10120000EF0082E00E94EF000E94EB000E94E300EA
:1012100083EA0E94EF000E94F9008F770E94D408B1
:1012200088870E94F9008F770E94D40889870E94DE
:10123000F9008F730E94D4088A870E94F9008F7387
:101240000E94D4088B870E94F9000E94F9008F71D8
:101250000E94D4088C870E9403010E94D40890E069
:101260008053984F9E878D870E94EB0087E0FE0198
:101270003896DE01119601900D928A95E1F7298149
:101280003A814B815C816D817E818F8190E02E96C9
:101290000FB6F894DEBF0FBECDBFDF91CF9108959A
:1012A000CF930E94E30082EA0E94EF0081E00E9457
:1012B000EF000E94EB000E94E30083EA0E94EF002F
:1012C0000E940301C82F0E94EB00C3FB882780F90E
:1012D000CF910895CF930E94E30082EA0E94EF002D
:1012E00081E00E94EF000E94EB000E94E30083EA8D
:1012F0000E94EF000E940301C82F0E94EB00C77FED
:101300000E94E30082EA0E94EF0081E00E94EF0069
:101310008C2F0E94EF000E94EB00CF910895CF9395
:10132000DF93C82FD62F0E94E30082EA0E94EF00CD
:1013300089E00E94EF008D2F0E94DF088F770E94C6
:10134000EF008C2F0E94DF088F730E94EF0080E86F
:101350000E94EF0080E80E94EF000E94EB000E94D4
:101360006A090E94E30082EA0E94EF0081E00E9485
:10137000EF0082E00E94EF000E94EB00DF91CF912E
:101380000895CF93DF93EC010E94E30082EA0E946C
:10139000EF0082E00E94EF0088810E94DF088F77D3
:1013A0000E94EF0089810E94DF088F770E94EF0082
:1013B0008A810E94DF088F730E94EF008B810E9458
:1013C000DF088F730E94EF0080E00E94EF008C81A5
:1013D0000E94DF088F710E94EF008D81805D0E9466
:1013E000DF080E94EF000E94EB00DF91CF9108958B
:1013F00097FB072E16F4009407D077FD09D00E94C2
:101400001B0A07FC05D03EF4909581959F4F0895E7
:10141000709561957F4F0895A29FB001B39FC00161
:10142000A39F700D811D1124911DB29F700D811D10
:101430001124911D0895AA1BBB1B51E107C0AA1FCF
:10144000BB1FA617B70710F0A61BB70B881F991F65
:101450005A95A9F780959095BC01CD010895AEE00D
:10146000B0E0E5E3FAE00C9424100D891E8986E0D3
:101470008C831A8309838FEF9FE79E838D83AE0150
:10148000475E5F4F6F89788DCE0101960E946A0A90
:10149000EF81F885E00FF11F10822E96E4E00C94A6
:1014A0004010AEE0B0E0E7E5FAE00C94261085E0ED
:1014B0008C838B899C899A838983AE01495E5F4FB7
:1014C0006D897E89CE0101960E94E70D2E96E2E09D
:1014D0000C944210ABE0B0E0E0E7FAE00C94161098
:1014E0006C017B018A01FC0117821682838181FFD6
:1014F000CCC1CE0101963C01F6019381F70193FD29
:10150000859193FF81917F01882309F4BAC18532C7
:1015100039F493FD859193FF81917F01853229F400
:10152000B60190E00E94600FE7CF912C212C312C66
:10153000FFE1F315D8F08B3279F038F4803279F08E
:101540008332A1F4232D20611DC08D3261F08033E0
:1015500069F4232D216016C0832D8260382EE32D7F
:10156000E4603E2E2AC0F32DF8601DC037FC2DC06C
:1015700020ED280F2A3040F08E32B9F436FC81C1BC
:10158000232D2064322E19C036FE06C08AE0989EB4
:10159000200D1124922E11C0EAE02E9E200D112460
:1015A000222EF32DF0623F2E08C08C3621F4832DBD
:1015B0008068382E02C0883641F4F70193FD85918A
:1015C00093FF81917F018111B3CF982F9F7D955417
:1015D000933028F40C5F1F4F9FE399830DC083362F
:1015E00031F0833771F0833509F059C021C0F8011B
:1015F000808189830E5F1F4F88248394912C53012F
:1016000013C02801F2E04F0E511CF801A080B180F8
:1016100036FE03C0692D70E002C06FEF7FEFC50199
:101620000E94170F4C018201F32DFF773F2E16C049
:10163000280122E0420E511CF801A080B18036FE44
:1016400003C0692D70E002C06FEF7FEFC5010E94FB
:101650000C0F4C01F32DF0683F2E820133FC1BC0B0
:10166000822D90E088169906B0F4B60180E290E0F1
:101670000E94600F2A94F4CFF50137FC859137FE64
:1016800081915F01B60190E00E94600F21102A94C1
:1016900021E0821A91088114910471F7E8C0843620
:1016A00011F0893641F5F80137FE07C0608171817C
:1016B000828193810C5F1F4F08C060817181072E6A
:1016C000000C880B990B0E5F1F4FF32DFF763F2EFA
:1016D00097FF09C090958095709561957F4F8F4FCA
:1016E0009F4FF0683F2E2AE030E0A3010E94B50F23
:1016F000882E861845C0853731F4232D2F7EB22ED3
:101700002AE030E025C0932D997FB92E8F36C1F0A5
:1017100018F4883579F0B5C0803719F0883721F092
:10172000B0C0E92FE061BE2EB4FE0DC0FB2DF46009
:10173000BF2E09C034FE0AC0292F2660B22E06C073
:1017400028E030E005C020E130E002C020E132E0D6
:10175000F801B7FE07C060817181828193810C5FBF
:101760001F4F06C06081718180E090E00E5F1F4FC7
:10177000A3010E94B50F882E8618FB2DFF773F2E00
:1017800036FE0DC0232D2E7FA22E891458F434FE70
:101790000BC032FC09C0832D8E7EA82E05C0B82C4C
:1017A000A32C03C0B82C01C0B92CA4FE0FC0FE01AD
:1017B000E80DF11D8081803321F49A2D997EA92EA8
:1017C00009C0A2FE06C0B394B39404C08A2D8678E3
:1017D00009F0B394A3FC11C0A0FE06C0B21488F4B3
:1017E000280C922C9B180EC0B21460F4B60180E253
:1017F00090E00E94600FB394F7CFB21418F42B1846
:1018000002C0982C212CA4FE10C0B60180E390E009
:101810000E94600FA2FE17C0A1FC03C088E790E001
:1018200002C088E590E0B6010CC08A2D867859F098
:10183000A1FE02C08BE201C080E2A7FC8DE2B601EE
:1018400090E00E94600F891438F4B60180E390E0C4
:101850000E94600F9A94F7CF8A94F301E80DF11D6E
:101860008081B60190E00E94600F8110F5CF2220A8
:1018700009F442CEB60180E290E00E94600F2A9403
:10188000F6CFF6018681978102C08FEF9FEF2B96EE
:10189000E2E10C94321020FD09C0FC0123FD05C0DB
:1018A00022FF02C07383628351834083089544FD05
:1018B00017C046FD17C0AB01BC01DA01FB01AA0F3E
:1018C000BB1FEE1FFF1F1094D1F74A0F5B1F6E1F47
:1018D0007F1FCB01BA01660F771F881F991F09C0B0
:1018E00033E001C034E0660F771F881F991F315025
:1018F000D1F7620F711D811D911D08950F931F93E4
:10190000CF93DF938C01C8010E94220FEC0197FD59
:1019100008C00E94F80E892BB1F7B801CE010E94D1
:101920009C0FCE01DF91CF911F910F9108958F925F
:101930009F92AF92BF92EF92FF920F931F93CF931C
:10194000DF938C01D62F7A01B22E0E94220F9C01C8
:1019500033272B32310531F02D32310561F48B2DD7
:101960008068B82ED15011F480E068C0C8010E9490
:10197000220F97FDF9CFCB2DCD7F2B2D207309F5AD
:101980008033F9F4AA24AA94AD0E09F443C0C80127
:101990000E94220F97FD3EC09C012F7D33272835E2
:1019A000310549F4C264D250A9F1C8010E94220F46
:1019B00097FF07C02FC0B6FE02C0C26001C0C2615F
:1019C000DA2D812C912C540120ED280F283080F045
:1019D000C4FF04C0B8010E949C0F19C02A3040F017
:1019E000C6FFF8CF2F7D3FEE320F363098F72750E5
:1019F0004C2FC501B4010E94570C4B015C01C26021
:101A0000D15059F0C8010E94220F97FFDDCFC1FDD0
:101A100004C0AACF812C912C5401C7FF08C0B094F8
:101A2000A09490948094811C911CA11CB11C2C2F1B
:101A3000B501A401C7010E944B0C81E0DF91CF9159
:101A40001F910F91FF90EF90BF90AF909F908F905C
:101A50000895A0E2B0E0EFE2FDE00C9419105C0103
:101A6000962E7A01F9018E010F5F1F4F680180E207
:101A7000D8011D928A95E9F7D50113968C9080E0E4
:101A800090E0612C712C30E061E070E083FC2591E6
:101A900083FE21918F01522E211103C080E090E03E
:101AA00092C02E3511F4009751F1432F50E04817A2
:101AB00059073CF42D3559F12D3219F4772009F1ED
:101AC00003C0772009F46AC0452D46954695469592
:101AD000D601A40FB11D452D47708B0102C0000F28
:101AE000111F4A95E2F7A8015C91452B4C936514B0
:101AF00059F0561410F45394E7CF5A94E5CF31E0DF
:101B000004C07724739401C0712C0196BFCF772055
:101B100019F08E8180628E83311103C088248394F2
:101B200017C0F6019E012F5D3F4F80818095819304
:101B30002E173F07D1F7F2CFE114F10429F0D701B6
:101B40008C93F70131967F019A94812C9920F9F0BA
:101B5000C5010E94220F97FD18C0FC01FF2723E05A
:101B6000F595E7952A95E1F7EC0DFD1D208130E014
:101B7000AC014770552702C0359527954A95E2F785
:101B800020FDDACFB5010E949C0F811087CFE114B0
:101B9000F10411F0D7011C92C80115C0422F4695DF
:101BA00046954695D601A40FB11D422F47708B0173
:101BB00002C0000F111F4A95E2F7A8015C91452B66
:101BC0004C93622EA2CFA096EFE00C943510A0E0CB
:101BD000B0E0EDEEFDE00C9419106C01EB015A0140
:101BE000FC0117821682512CF601E380FE01E3FC12
:101BF0008591E3FE8191182FEF01882309F4EEC04F
:101C000090E00E94F80E892B21F0C6010E947E0C04
:101C1000EBCF153241F4FE01E3FC1591E3FE119187
:101C2000EF01153281F4C6010E94220F97FDD4C046
:101C3000412F50E09C01332724173507A9F2B60144
:101C40000E949C0FCBC01A3239F4E3FC1591E3FEDD
:101C50001191EF0101E001C000E0F12C20ED210F16
:101C60002A3080F402606F2D70E080E090E040E266
:101C70000E94570CF62EFE01E3FC1591E3FE119134
:101C8000EF01ECCF01FF03C0F11003C0A7C0FF2498
:101C9000FA94183619F01C3651F010C0FE01E3FC1E
:101CA0001591E3FE1191EF01183641F408600460CC
:101CB000FE01E3FC1591E3FE1191EF01112309F4FC
:101CC0008DC0612F70E088E690E00E94010F892BA3
:101CD00009F484C000FD07C0F50180809180C50132
:101CE00002965C0102C0812C912C1E3651F4F60143
:101CF0004681578160E070E0202FC4010E944B0CA8
:101D000073CF1336A9F401FD02C0FF24F394C6017A
:101D10000E94220F97FD60C08114910429F0F40104
:101D20008083C40101964C01FA94F110F0CF50C0A9
:101D30001B3559F49E01A4016F2DC6010E94290D87
:101D4000EC01892B09F044C03EC0C6010E947E0C04
:101D500097FD42C01F3661F128F4143639F1193667
:101D600051F128C0133771F0153701F123C08114E8
:101D7000910429F0F4016082C40101964C01FA94A7
:101D8000FF2071F0C6010E94220F3C0197FD08C0A0
:101D90000E94F80E892B59F3B601C3010E949C0FD3
:101DA00081149104A9F0F401108212C0006203C0F2
:101DB000006101C00064202FA4016F2DC6010E94A4
:101DC000970C811105C0F6018381807329F406C048
:101DD00000FD0ACF539408CF552019F0852D90E0CF
:101DE00002C08FEF9FEFCDB7DEB7EFE00C94351058
:101DF00091110C941310803219F089508550C8F756
:101E00000895FC010590061621F00020D9F7C001C5
:101E100008953197CF010895FC01059061507040FD
:101E20000110D8F7809590958E0F9F1F0895FC01A3
:101E30006150704001900110D8F7809590958E0FF9
:101E40009F1F0895CF93DF93EC012B8120FF33C0B8
:101E500026FF0AC02F7B2B838E819F8101969F8353
:101E60008E838A8190E029C022FF0FC0E881F9812A
:101E70008081082E000C990B009719F420622B83A7
:101E80001AC03196F983E8830EC0EA85FB8509956F
:101E900097FF09C02B81019611F080E201C080E11B
:101EA000822B8B8308C02E813F812F5F3F4F3F8362
:101EB0002E83992702C08FEF9FEFDF91CF91089576
:101EC0000F931F93CF93DF93FB01238121FD03C069
:101ED0008FEF9FEF2CC022FF16C0468157812481CF
:101EE00035814217530744F4A081B1819D012F5FD2
:101EF0003F4F318320838C93268137812F5F3F4F63
:101F00003783268314C08B01EC01FB010084F1852B
:101F1000E02D0995892BE1F6D80116968D919C91BB
:101F20001797019617969C938E931697CE01DF9183
:101F3000CF911F910F910895FB01238120FF12C0C3
:101F400026FD10C08F3F3FEF930761F082832F7D06
:101F500020642383268137812150310937832683EA
:101F6000992708958FEF9FEF0895FA01AA27283047
:101F700051F1203181F1E8946F936E7F6E5F7F4F56
:101F80008F4F9F4FAF4FB1E03ED0B4E03CD0670FD2
:101F9000781F891F9A1FA11D680F791F8A1F911D25
:101FA000A11D6A0F711D811D911DA11D20D009F475
:101FB00068943F912AE0269F11243019305D3193B7
:101FC000DEF6CF010895462F4770405D4193B3E0A0
:101FD0000FD0C9F7F6CF462F4F70405D4A3318F047
:101FE000495D31FD4052419302D0A9F7EACFB4E0F8
:101FF000A6959795879577956795BA95C9F70097B0
:102000006105710508959B01AC010A2E0694579550
:10201000479537952795BA95C9F7620F731F841FA7
:10202000951FA01D08959927882708952F923F9204
:102030004F925F926F927F928F929F92AF92BF92D8
:10204000CF92DF92EF92FF920F931F93CF93DF9384
:10205000CDB7DEB7CA1BDB0B0FB6F894DEBF0FBEE1
:10206000CDBF09942A88398848885F846E847D842E
:102070008C849B84AA84B984C884DF80EE80FD8030
:102080000C811B81AA81B981CE0FD11D0FB6F894A6
:0E209000DEBF0FBECDBFED010895F894FFCF67
:10209E00416C61726D205365743A003738392F34B4
:1020AE0035362A3132332D43303D2B54696D653A26
:1020BE0020253032643A253032643A2530326400BD
:1020CE00446174653A20253032642F253032642FF6
:1020DE00253034640053657420416C61726D204864
:1020EE00483A4D4D005365742054696D653A00535E
:1020FE00657420446174653A00446174652F5469B7
:10210E006D6520536574210043616C63756C617459
:10211E006F72204D6F64650025642563256400454C
:10212E0072726F723A2044697620627920300025EF
:10213E00733D2564002020202020202020202020F8
:10214E0020202020200053656C656374204D6F6441
:10215E00653A00312D43616C632020322D416C6154
:10216E00726D00332D53657420446174652F54696C
:10217E006D6500436F6D62696E656420556C747297
:10218E0061736F6E696320616E6420416E616C6F66
:10219E00672053656E736F722053797374656D008B
:1021AE002D2D2D2D2D2D2D2D2D2D2D2D2D2D2D2D51
:1021BE002D2D2D2D2D2D2D2D2D2D2D2D2D2D2D2D41
:1021CE002D2D2D2D2D2D2D2D2D2D2D004C4544201D
:1021DE0077696C6C207475726E204F4E207768652F
:1021EE006E3A002D2044697374616E6365203C2045
:1021FE00313020636D20414E44002D20416E616CC4
:10220E006F672072656164696E67203C20333030E1
:10221E00004D6561737572656D656E7473207461C2
:10222E006B656E206576657279203530306D730082
:10223E00414C41524D21005072657373203D207404
:08224E006F2073746F70000033
:00000001FF
