:100000000C943A000C9457000C9457000C94570031
:100010000C9457000C9457000C9457000C94570004
:100020000C9457000C9457000C9457000C945700F4
:100030000C9457000C9457000C9457000C945700E4
:100040000C9457000C9457000C9457000C945700D4
:100050000C9457000C9457000C9457000C945700C4
:100060000C9457000C9457006364696E6F7073753D
:1000700078585B0011241FBECFEFD8E0DEBFCDBFA4
:1000800011E0A0E0B1E0ECEBF3E102C005900D92CD
:10009000AE3AB107D9F721E0AEEAB1E001C01D9256
:1000A000A13CB207E1F70E94D4020C94DC090C9445
:1000B00000001092B90088E48093B80084E0809337
:1000C000BC00089584EA8093BC008091BC00882322
:1000D000E4F7089584E98093BC0008958093BB0001
:1000E00084E88093BC008091BC008823E4F70895E5
:1000F00084EC8093BC008091BC008823E4F780915D
:10010000BB00089584E88093BC008091BC008823E4
:10011000E4F78091BB0008958AB1806F8AB98BB1F2
:10012000806F8BB984B1807F84B985B18F6085B9C8
:10013000089530E044C08BB1E32FF0E0BF016C5F65
:100140007F4F41E050E002C0440F551F6A95E2F72F
:10015000A42F942F909589238BB981EE94E0019779
:10016000F1F700C0000020E024C083B1622F70E0EE
:1001700090E0022E02C0959587950A94E2F780FDE3
:1001800017C083B190E0062E02C0959587950A941A
:10019000E2F780FFF6CF8BB1A82BABB9EE0FFF1FB4
:1001A000EE0FFF1FE050FF4FE60FF71F808108950D
:1001B0002F5F2430D0F28BB1482B4BB93F5F3430E6
:1001C00008F4B9CF80E008951F93CF93DF93182FE1
:1001D000107F90E1899FE00111240E94620080E479
:1001E0000E946E0080E00E946E00812F84600E9459
:1001F0006E00812F0E946E008C2F84600E946E0022
:100200008C2F0E946E000E946A0083EF91E001979C
:10021000F1F700C00000DF91CF911F91089583EDA9
:1002200090E30197F1F700C0000083E30E94E4002F
:1002300082E30E94E40088E20E94E4008CE00E94D5
:10024000E40086E00E94E40081E00E94E40083EF85
:1002500091E00197F1F700C0000008950F931F93FC
:10026000CF93DF9300D000D0CDB7DEB78C010E94D2
:10027000620080E40E946E0080E40E946E001CC058
:100280002A81207F29838A81E0E18E9FC001112489
:100290009C838B83822F85600E946E0089818160A0
:1002A0000E946E008B8185600E946E008B81816050
:1002B0000E946E000F5F1F4FF801F081FA83F11169
:1002C000DFCF0E946A000F900F900F900F90DF9188
:1002D000CF911F910F910895CF93DF9300D000D05D
:1002E000CDB7DEB7198290E49A8394E19B8394E5BD
:1002F0009C83E1E0F0E0EC0FFD1FE60FF11D908123
:10030000890F80680E94E4000F900F900F900F906B
:10031000DF91CF91089581E00E94E40083EF91E0A6
:100320000197F1F700C0000008951092AF011092FC
:10033000B1011092AE010E948B0180E191E00E9418
:100340002E0161E080E00E946C0108950F931F93DD
:10035000CF93DF9300D000D01F92CDB7DEB71A82C3
:1003600019821C821B821D829E012D5F3F4F3F938D
:100370002F932E5F3F4F3F932F93245031093F938C
:100380002F9320E231E03F932F939F938F930E940E
:10039000E0030FB6F894DEBF0FBECDBF8D818B3268
:1003A00049F018F48A32A1F034C08D3251F08F3206
:1003B000D9F02FC009811A818B819C81080F191FE8
:1003C0002AC009811A818B819C81081B190B23C0CB
:1003D00029813A818B819C81289F8001299F100D62
:1003E000389F100D112417C00B811C8101151105B8
:1003F00039F089819A81B8010E9496038B010BC064
:1004000061E080E00E946C0187E291E00E942E0191
:1004100002C000E010E0C8010F900F900F900F9005
:100420000F90DF91CF911F910F9108950F931F931C
:10043000CF93DF93CDB7DEB760970FB6F894DEBFEA
:100440000FBECDBF833419F40E94950161C08D3376
:1004500089F59091AE0191112DC081EB91E00E9440
:10046000A6019F938F9381EB91E09F938F9387E3F6
:1004700091E09F938F938E010F5F1F4F1F930F93F8
:100480000E94BE0361E080E00E946C018DE391E078
:100490000E942E0161E080E00E946C01C8010E9470
:1004A0002E0181E08093AE010FB6F894DEBF0FBE3F
:1004B000CDBF2EC08D3339F49091AE01992319F040
:1004C0000E94950125C0E091AF01EF3008F59091B1
:1004D000AE0191111DC091E09E0F9093AF01F0E02D
:1004E000EF54FE4F8083E92FF0E0EF54FE4F10826F
:1004F00061E080E00E946C018DE391E00E942E019A
:1005000061E080E00E946C0181EB91E00E942E018D
:1005100060960FB6F894DEBF0FBECDBFDF91CF91CE
:100520001F910F9108950E9499008334F9F48091EE
:10053000B001811112C081E08093B0010E948B0153
:100540008EE491E00E942E0161E080E00E946C0147
:100550008CE591E00E942E0108951092B0010E9456
:100560008B018CE691E00E942E0108959091B001DC
:100570009130A1F4813331F482E08093B0010E9484
:1005800095010895823379F483E08093B0010E944D
:100590008B0188E791E00E942E010895923019F4B2
:1005A00081110E9416020895CF93DF93CDB7DEB775
:1005B00061970FB6F894DEBF0FBECDBF0E94590001
:1005C0000E940F010E9438030E948C000E94930237
:1005D0008091B0018111FACF0E9446032B873C879E
:1005E0004D875E876F87788B898B60E080E00E9403
:1005F0006C012B859C858D851F922F931F929F9355
:100600001F928F9383E891E09F938F938E010F5FEA
:100610001F4F1F930F930E94BE03C8010E942E011B
:1006200061E080E00E946C019F858E8529892F936F
:1006300028892F931F929F931F928F9388E991E0AF
:100640009F938F931F930F930E94BE03C8010E9434
:100650002E012FE38DE093E0215080409040E1F7A0
:1006600000C000000FB6F894DEBF0FBECDBFAECF06
:100670000E94620082EA0E946E0080E00E946E008A
:1006800080E00E946E000E946A000895CF93DF937D
:10069000CDB7DEB72E970FB6F894DEBF0FBECDBF35
:1006A0000E94620082EA0E946E0082E00E946E0058
:1006B0000E946A000E94620083EA0E946E000E940B
:1006C00078008F7788870E9478008F7789870E94CB
:1006D00078008F738A870E9478008F738B870E94BF
:1006E00078008F718C870E94820090E08053984F31
:1006F0009E878D870E946A0087E0FE013896DE01A2
:10070000119601900D928A95E1F729813A814B81EA
:100710005C816D817E818F8190E02E960FB6F8947A
:10072000DEBF0FBECDBFDF91CF91089597FB072E9F
:1007300016F4009407D077FD09D00E94AA0307FCA5
:1007400005D03EF4909581959F4F089570956195E1
:100750007F4F0895AA1BBB1B51E107C0AA1FBB1FF7
:10076000A617B70710F0A61BB70B881F991F5A953D
:10077000A9F780959095BC01CD010895AEE0B0E059
:10078000E4ECF3E00C94B3090D891E8986E08C83B8
:100790001A8309838FEF9FE79E838D83AE01475EA7
:1007A0005F4F6F89788DCE0101960E94F903EF812A
:1007B000F885E00FF11F10822E96E4E00C94CF092B
:1007C000AEE0B0E0E6EEF3E00C94B50985E08C8392
:1007D0008B899C899A838983AE01495E5F4F6D89BD
:1007E0007E89CE0101960E9476072E96E2E00C9457
:1007F000D109ABE0B0E0EFEFF3E00C94A5096C0198
:100800007B018A01FC0117821682838181FFCCC1A2
:10081000CE0101963C01F6019381F70193FD85918C
:1008200093FF81917F01882309F4BAC1853239F49D
:1008300093FD859193FF81917F01853229F4B60163
:1008400090E00E94EF08E7CF912C212C312CFFE1A2
:10085000F315D8F08B3279F038F4803279F08332A6
:10086000A1F4232D20611DC08D3261F0803369F425
:10087000232D216016C0832D8260382EE32DE46085
:100880003E2E2AC0F32DF8601DC037FC2DC020ED90
:10089000280F2A3040F08E32B9F436FC81C1232D66
:1008A0002064322E19C036FE06C08AE0989E200DC4
:1008B0001124922E11C0EAE02E9E200D1124222E2A
:1008C000F32DF0623F2E08C08C3621F4832D806812
:1008D000382E02C0883641F4F70193FD859193FFCD
:1008E00081917F018111B3CF982F9F7D95549330D3
:1008F00028F40C5F1F4F9FE399830DC0833631F0BE
:10090000833771F0833509F059C021C0F801808127
:1009100089830E5F1F4F88248394912C530113C049
:100920002801F2E04F0E511CF801A080B18036FE84
:1009300003C0692D70E002C06FEF7FEFC5010E9418
:10094000A6084C018201F32DFF773F2E16C0280127
:1009500022E0420E511CF801A080B18036FE03C097
:10096000692D70E002C06FEF7FEFC5010E949B0808
:100970004C01F32DF0683F2E820133FC1BC0822D09
:1009800090E088169906B0F4B60180E290E00E94EB
:10099000EF082A94F4CFF50137FC859137FE819159
:1009A0005F01B60190E00E94EF0821102A9421E037
:1009B000821A91088114910471F7E8C0843611F00D
:1009C000893641F5F80137FE07C060817181828167
:1009D00093810C5F1F4F08C060817181072E000C4E
:1009E000880B990B0E5F1F4FF32DFF763F2E97FF5D
:1009F00009C090958095709561957F4F8F4F9F4F5F
:100A0000F0683F2E2AE030E0A3010E944409882EBE
:100A1000861845C0853731F4232D2F7EB22E2AE06B
:100A200030E025C0932D997FB92E8F36C1F018F490
:100A3000883579F0B5C0803719F0883721F0B0C01B
:100A4000E92FE061BE2EB4FE0DC0FB2DF460BF2E79
:100A500009C034FE0AC0292F2660B22E06C028E045
:100A600030E005C020E130E002C020E132E0F801D2
:100A7000B7FE07C060817181828193810C5F1F4F37
:100A800006C06081718180E090E00E5F1F4FA3017E
:100A90000E944409882E8618FB2DFF773F2E36FED4
:100AA0000DC0232D2E7FA22E891458F434FE0BC0C6
:100AB00032FC09C0832D8E7EA82E05C0B82CA32C35
:100AC00003C0B82C01C0B92CA4FE0FC0FE01E80D74
:100AD000F11D8081803321F49A2D997EA92E09C0C1
:100AE000A2FE06C0B394B39404C08A2D867809F0A0
:100AF000B394A3FC11C0A0FE06C0B21488F4280C65
:100B0000922C9B180EC0B21460F4B60180E290E003
:100B10000E94EF08B394F7CFB21418F42B1802C058
:100B2000982C212CA4FE10C0B60180E390E00E9416
:100B3000EF08A2FE17C0A1FC03C088E790E002C046
:100B400088E590E0B6010CC08A2D867859F0A1FEA8
:100B500002C08BE201C080E2A7FC8DE2B60190E00A
:100B60000E94EF08891438F4B60180E390E00E94F7
:100B7000EF089A94F7CF8A94F301E80DF11D808174
:100B8000B60190E00E94EF088110F5CF222009F411
:100B900042CEB60180E290E00E94EF082A94F6CFA0
:100BA000F6018681978102C08FEF9FEF2B96E2E1DD
:100BB0000C94C10920FD09C0FC0123FD05C022FFE2
:100BC00002C07383628351834083089544FD17C03C
:100BD00046FD17C0AB01BC01DA01FB01AA0FBB1F28
:100BE000EE1FFF1F1094D1F74A0F5B1F6E1F7F1F70
:100BF000CB01BA01660F771F881F991F09C033E028
:100C000001C034E0660F771F881F991F3150D1F75C
:100C1000620F711D811D911D08950F931F93CF9336
:100C2000DF938C01C8010E94B108EC0197FD08C058
:100C30000E948708892BB1F7B801CE010E942B09C9
:100C4000CE01DF91CF911F910F9108958F929F92C6
:100C5000AF92BF92EF92FF920F931F93CF93DF93C8
:100C60008C01D62F7A01B22E0E94B1089C01332745
:100C70002B32310531F02D32310561F48B2D806836
:100C8000B82ED15011F480E068C0C8010E94B108AC
:100C900097FDF9CFCB2DCD7F2B2D207309F5803318
:100CA000F9F4AA24AA94AD0E09F443C0C8010E9425
:100CB000B10897FD3EC09C012F7D332728353105B3
:100CC00049F4C264D250A9F1C8010E94B10897FF4B
:100CD00007C02FC0B6FE02C0C26001C0C261DA2DDB
:100CE000812C912C540120ED280F283080F0C4FF76
:100CF00004C0B8010E942B0919C02A3040F0C6FF79
:100D0000F8CF2F7D3FEE320F363098F727504C2F1B
:100D1000C501B4010E94E6054B015C01C260D150DF
:100D200059F0C8010E94B10897FFDDCFC1FD04C092
:100D3000AACF812C912C5401C7FF08C0B094A09475
:100D400090948094811C911CA11CB11C2C2FB50186
:100D5000A401C7010E94DA0581E0DF91CF911F91C4
:100D60000F91FF90EF90BF90AF909F908F9008955C
:100D7000A0E2B0E0EEEBF6E00C94A8095C01962E40
:100D80007A01F9018E010F5F1F4F680180E2D801DF
:100D90001D928A95E9F7D50113968C9080E090E03A
:100DA000612C712C30E061E070E083FC259183FEC2
:100DB00021918F01522E211103C080E090E092C05A
:100DC0002E3511F4009751F1432F50E04817590781
:100DD0003CF42D3559F12D3219F4772009F103C077
:100DE000772009F46AC0452D469546954695D6016B
:100DF000A40FB11D452D47708B0102C0000F111FBC
:100E00004A95E2F7A8015C91452B4C93651459F083
:100E1000561410F45394E7CF5A94E5CF31E004C050
:100E20007724739401C0712C0196BFCF772019F0FD
:100E30008E8180628E83311103C08824839417C011
:100E4000F6019E012F5D3F4F8081809581932E1783
:100E50003F07D1F7F2CFE114F10429F0D7018C93C9
:100E6000F70131967F019A94812C9920F9F0C50100
:100E70000E94B10897FD18C0FC01FF2723E0F595FB
:100E8000E7952A95E1F7EC0DFD1D208130E0AC01DE
:100E90004770552702C0359527954A95E2F720FD02
:100EA000DACFB5010E942B09811087CFE114F1043C
:100EB00011F0D7011C92C80115C0422F46954695E6
:100EC0004695D601A40FB11D422F47708B0102C079
:100ED000000F111F4A95E2F7A8015C91452B4C9336
:100EE000622EA2CFA096EFE00C94C409A0E0B0E07F
:100EF000ECE7F7E00C94A8096C01EB015A01FC0146
:100F000017821682512CF601E380FE01E3FC8591E5
:100F1000E3FE8191182FEF01882309F4EEC090E0E1
:100F20000E948708892B21F0C6010E940D06EBCF95
:100F3000153241F4FE01E3FC1591E3FE1191EF013E
:100F4000153281F4C6010E94B10897FDD4C0412F2B
:100F500050E09C01332724173507A9F2B6010E94FF
:100F60002B09CBC01A3239F4E3FC1591E3FE119141
:100F7000EF0101E001C000E0F12C20ED210F2A304B
:100F800080F402606F2D70E080E090E040E20E940B
:100F9000E605F62EFE01E3FC1591E3FE1191EF014B
:100FA000ECCF01FF03C0F11003C0A7C0FF24FA94E7
:100FB000183619F01C3651F010C0FE01E3FC1591F3
:100FC000E3FE1191EF01183641F408600460FE0160
:100FD000E3FC1591E3FE1191EF01112309F48DC09B
:100FE000612F70E088E690E00E949008892B09F458
:100FF00084C000FD07C0F50180809180C501029684
:101000005C0102C0812C912C1E3651F4F601468100
:10101000578160E070E0202FC4010E94DA0573CF91
:101020001336A9F401FD02C0FF24F394C6010E9407
:10103000B10897FD60C08114910429F0F401808308
:10104000C40101964C01FA94F110F0CF50C01B3549
:1010500059F49E01A4016F2DC6010E94B806EC014F
:10106000892B09F044C03EC0C6010E940D0697FDC1
:1010700042C01F3661F128F4143639F1193651F1A6
:1010800028C0133771F0153701F123C08114910482
:1010900029F0F4016082C40101964C01FA94FF200A
:1010A00071F0C6010E94B1083C0197FD08C00E9482
:1010B0008708892B59F3B601C3010E942B098114BB
:1010C0009104A9F0F401108212C0006203C0006113
:1010D00001C00064202FA4016F2DC6010E942606C6
:1010E000811105C0F6018381807329F406C000FDDB
:1010F0000ACF539408CF552019F0852D90E002C0F7
:101100008FEF9FEFCDB7DEB7EFE00C94C4099111DC
:101110000C94A209803219F089508550C8F70895BF
:10112000FC010590061621F00020D9F7C0010895B2
:101130003197CF010895FC01059061507040011076
:10114000D8F7809590958E0F9F1F0895FC016150F0
:10115000704001900110D8F7809590958E0F9F1FD9
:101160000895CF93DF93EC012B8120FF33C026FF3E
:101170000AC02F7B2B838E819F8101969F838E8354
:101180008A8190E029C022FF0FC0E881F981808127
:10119000082E000C990B009719F420622B831AC0BB
:1011A0003196F983E8830EC0EA85FB85099597FFA0
:1011B00009C02B81019611F080E201C080E1822BF1
:1011C0008B8308C02E813F812F5F3F4F3F832E834B
:1011D000992702C08FEF9FEFDF91CF9108950F9372
:1011E0001F93CF93DF93FB01238121FD03C08FEF7A
:1011F0009FEF2CC022FF16C0468157812481358184
:101200004217530744F4A081B1819D012F5F3F4FE6
:10121000318320838C93268137812F5F3F4F378323
:10122000268314C08B01EC01FB010084F185E02DC5
:101230000995892BE1F6D80116968D919C91179707
:10124000019617969C938E931697CE01DF91CF91BE
:101250001F910F910895FB01238120FF12C026FDED
:1012600010C08F3F3FEF930761F082832F7D206492
:10127000238326813781215031093783268399279B
:1012800008958FEF9FEF0895FA01AA27283051F1B2
:10129000203181F1E8946F936E7F6E5F7F4F8F4FA7
:1012A0009F4FAF4FB1E03ED0B4E03CD0670F781F06
:1012B000891F9A1FA11D680F791F8A1F911DA11DEB
:1012C0006A0F711D811D911DA11D20D009F4689424
:1012D0003F912AE0269F11243019305D3193DEF6CC
:1012E000CF010895462F4770405D4193B3E00FD082
:1012F000C9F7F6CF462F4F70405D4A3318F0495D6D
:1013000031FD4052419302D0A9F7EACFB4E0A6954F
:101310009795879577956795BA95C9F70097610571
:10132000710508959B01AC010A2E069457954795C7
:1013300037952795BA95C9F7620F731F841F951FBC
:10134000A01D08959927882708952F923F924F92C4
:101350005F926F927F928F929F92AF92BF92CF9245
:10136000DF92EF92FF920F931F93CF93DF93CDB74E
:10137000DEB7CA1BDB0B0FB6F894DEBF0FBECDBFC6
:1013800009942A88398848885F846E847D848C8497
:101390009B84AA84B984C884DF80EE80FD800C81A0
:1013A0001B81AA81B981CE0FD11D0FB6F894DEBF83
:0C13B0000FBECDBFED010895F894FFCFF3
:1013BC003132332F3435362A3738392D43303D2BE3
:1013CC0043616C63756C61746F72204D6F64650062
:1013DC00256425632564004572726F723A20446956
:1013EC007620627920300025733D25640020202072
:1013FC0020202020202020202020202020002053CE
:10140C00656C656374204D6F64653A00312D4361E2
:10141C006C632020322D416C61726D0054696D65D6
:10142C002026204461746500416C61726D204D6F03
:10143C0064650054696D653A20253032643A253074
:10144C0032643A2530326400446174653A202530A8
:0E145C0032642F253032642F253034640000B6
:00000001FF
